{
  "contractName": "SphynxFarm",
  "abi": [
    {
      "inputs": [
        {
          "internalType": "contract IERC20",
          "name": "_erc20",
          "type": "address"
        },
        {
          "internalType": "uint256",
          "name": "_rewardPerBlock",
          "type": "uint256"
        },
        {
          "internalType": "uint256",
          "name": "_startBlock",
          "type": "uint256"
        }
      ],
      "stateMutability": "nonpayable",
      "type": "constructor"
    },
    {
      "anonymous": false,
      "inputs": [
        {
          "indexed": true,
          "internalType": "address",
          "name": "user",
          "type": "address"
        },
        {
          "indexed": true,
          "internalType": "uint256",
          "name": "pid",
          "type": "uint256"
        },
        {
          "indexed": false,
          "internalType": "uint256",
          "name": "amount",
          "type": "uint256"
        }
      ],
      "name": "Deposit",
      "type": "event"
    },
    {
      "anonymous": false,
      "inputs": [
        {
          "indexed": true,
          "internalType": "address",
          "name": "user",
          "type": "address"
        },
        {
          "indexed": true,
          "internalType": "uint256",
          "name": "pid",
          "type": "uint256"
        },
        {
          "indexed": false,
          "internalType": "uint256",
          "name": "amount",
          "type": "uint256"
        }
      ],
      "name": "EmergencyWithdraw",
      "type": "event"
    },
    {
      "anonymous": false,
      "inputs": [
        {
          "indexed": true,
          "internalType": "address",
          "name": "previousOwner",
          "type": "address"
        },
        {
          "indexed": true,
          "internalType": "address",
          "name": "newOwner",
          "type": "address"
        }
      ],
      "name": "OwnershipTransferred",
      "type": "event"
    },
    {
      "anonymous": false,
      "inputs": [
        {
          "indexed": true,
          "internalType": "address",
          "name": "user",
          "type": "address"
        },
        {
          "indexed": true,
          "internalType": "uint256",
          "name": "pid",
          "type": "uint256"
        },
        {
          "indexed": false,
          "internalType": "uint256",
          "name": "amount",
          "type": "uint256"
        }
      ],
      "name": "Withdraw",
      "type": "event"
    },
    {
      "inputs": [],
      "name": "endBlock",
      "outputs": [
        {
          "internalType": "uint256",
          "name": "",
          "type": "uint256"
        }
      ],
      "stateMutability": "view",
      "type": "function"
    },
    {
      "inputs": [],
      "name": "erc20",
      "outputs": [
        {
          "internalType": "contract IERC20",
          "name": "",
          "type": "address"
        }
      ],
      "stateMutability": "view",
      "type": "function"
    },
    {
      "inputs": [],
      "name": "owner",
      "outputs": [
        {
          "internalType": "address",
          "name": "",
          "type": "address"
        }
      ],
      "stateMutability": "view",
      "type": "function"
    },
    {
      "inputs": [],
      "name": "paidOut",
      "outputs": [
        {
          "internalType": "uint256",
          "name": "",
          "type": "uint256"
        }
      ],
      "stateMutability": "view",
      "type": "function"
    },
    {
      "inputs": [
        {
          "internalType": "uint256",
          "name": "",
          "type": "uint256"
        }
      ],
      "name": "poolInfo",
      "outputs": [
        {
          "internalType": "contract IERC20",
          "name": "lpToken",
          "type": "address"
        },
        {
          "internalType": "uint256",
          "name": "allocPoint",
          "type": "uint256"
        },
        {
          "internalType": "uint256",
          "name": "lastRewardBlock",
          "type": "uint256"
        },
        {
          "internalType": "uint256",
          "name": "accERC20PerShare",
          "type": "uint256"
        }
      ],
      "stateMutability": "view",
      "type": "function"
    },
    {
      "inputs": [],
      "name": "renounceOwnership",
      "outputs": [],
      "stateMutability": "nonpayable",
      "type": "function"
    },
    {
      "inputs": [],
      "name": "rewardPerBlock",
      "outputs": [
        {
          "internalType": "uint256",
          "name": "",
          "type": "uint256"
        }
      ],
      "stateMutability": "view",
      "type": "function"
    },
    {
      "inputs": [],
      "name": "startBlock",
      "outputs": [
        {
          "internalType": "uint256",
          "name": "",
          "type": "uint256"
        }
      ],
      "stateMutability": "view",
      "type": "function"
    },
    {
      "inputs": [],
      "name": "totalAllocPoint",
      "outputs": [
        {
          "internalType": "uint256",
          "name": "",
          "type": "uint256"
        }
      ],
      "stateMutability": "view",
      "type": "function"
    },
    {
      "inputs": [
        {
          "internalType": "address",
          "name": "newOwner",
          "type": "address"
        }
      ],
      "name": "transferOwnership",
      "outputs": [],
      "stateMutability": "nonpayable",
      "type": "function"
    },
    {
      "inputs": [
        {
          "internalType": "uint256",
          "name": "",
          "type": "uint256"
        },
        {
          "internalType": "address",
          "name": "",
          "type": "address"
        }
      ],
      "name": "userInfo",
      "outputs": [
        {
          "internalType": "uint256",
          "name": "amount",
          "type": "uint256"
        },
        {
          "internalType": "uint256",
          "name": "rewardDebt",
          "type": "uint256"
        }
      ],
      "stateMutability": "view",
      "type": "function"
    },
    {
      "inputs": [],
      "name": "poolLength",
      "outputs": [
        {
          "internalType": "uint256",
          "name": "",
          "type": "uint256"
        }
      ],
      "stateMutability": "view",
      "type": "function"
    },
    {
      "inputs": [
        {
          "internalType": "uint256",
          "name": "_amount",
          "type": "uint256"
        }
      ],
      "name": "fund",
      "outputs": [],
      "stateMutability": "nonpayable",
      "type": "function"
    },
    {
      "inputs": [
        {
          "internalType": "uint256",
          "name": "_allocPoint",
          "type": "uint256"
        },
        {
          "internalType": "contract IERC20",
          "name": "_lpToken",
          "type": "address"
        },
        {
          "internalType": "bool",
          "name": "_withUpdate",
          "type": "bool"
        }
      ],
      "name": "add",
      "outputs": [],
      "stateMutability": "nonpayable",
      "type": "function"
    },
    {
      "inputs": [
        {
          "internalType": "uint256",
          "name": "_pid",
          "type": "uint256"
        },
        {
          "internalType": "uint256",
          "name": "_allocPoint",
          "type": "uint256"
        },
        {
          "internalType": "bool",
          "name": "_withUpdate",
          "type": "bool"
        }
      ],
      "name": "set",
      "outputs": [],
      "stateMutability": "nonpayable",
      "type": "function"
    },
    {
      "inputs": [
        {
          "internalType": "uint256",
          "name": "_pid",
          "type": "uint256"
        },
        {
          "internalType": "address",
          "name": "_user",
          "type": "address"
        }
      ],
      "name": "deposited",
      "outputs": [
        {
          "internalType": "uint256",
          "name": "",
          "type": "uint256"
        }
      ],
      "stateMutability": "view",
      "type": "function"
    },
    {
      "inputs": [
        {
          "internalType": "uint256",
          "name": "_pid",
          "type": "uint256"
        },
        {
          "internalType": "address",
          "name": "_user",
          "type": "address"
        }
      ],
      "name": "pending",
      "outputs": [
        {
          "internalType": "uint256",
          "name": "",
          "type": "uint256"
        }
      ],
      "stateMutability": "view",
      "type": "function"
    },
    {
      "inputs": [],
      "name": "totalPending",
      "outputs": [
        {
          "internalType": "uint256",
          "name": "",
          "type": "uint256"
        }
      ],
      "stateMutability": "view",
      "type": "function"
    },
    {
      "inputs": [],
      "name": "massUpdatePools",
      "outputs": [],
      "stateMutability": "nonpayable",
      "type": "function"
    },
    {
      "inputs": [
        {
          "internalType": "uint256",
          "name": "_pid",
          "type": "uint256"
        }
      ],
      "name": "updatePool",
      "outputs": [],
      "stateMutability": "nonpayable",
      "type": "function"
    },
    {
      "inputs": [
        {
          "internalType": "uint256",
          "name": "_pid",
          "type": "uint256"
        },
        {
          "internalType": "uint256",
          "name": "_amount",
          "type": "uint256"
        }
      ],
      "name": "deposit",
      "outputs": [],
      "stateMutability": "nonpayable",
      "type": "function"
    },
    {
      "inputs": [
        {
          "internalType": "uint256",
          "name": "_pid",
          "type": "uint256"
        },
        {
          "internalType": "uint256",
          "name": "_amount",
          "type": "uint256"
        }
      ],
      "name": "withdraw",
      "outputs": [],
      "stateMutability": "nonpayable",
      "type": "function"
    },
    {
      "inputs": [
        {
          "internalType": "uint256",
          "name": "_pid",
          "type": "uint256"
        }
      ],
      "name": "emergencyWithdraw",
      "outputs": [],
      "stateMutability": "nonpayable",
      "type": "function"
    }
  ],
  "bytecode": "0x60806040526000600255600060065534801561001a57600080fd5b506040516126443803806126448339818101604052606081101561003d57600080fd5b81019080805190602001909291908051906020019092919080519060200190929190505050600061007b610177640100000000026401000000009004565b9050806000806101000a81548173ffffffffffffffffffffffffffffffffffffffff021916908373ffffffffffffffffffffffffffffffffffffffff1602179055508073ffffffffffffffffffffffffffffffffffffffff16600073ffffffffffffffffffffffffffffffffffffffff167f8be0079c531659141344cd1fd0a4f28419497f9722a3daafe3b4186f6b6457e060405160405180910390a35082600160006101000a81548173ffffffffffffffffffffffffffffffffffffffff021916908373ffffffffffffffffffffffffffffffffffffffff16021790555081600381905550806007819055508060088190555050505061017f565b600033905090565b6124b68061018e6000396000f3fe608060405234801561001057600080fd5b506004361061016a576000357c010000000000000000000000000000000000000000000000000000000090048063630b5ba1116100e057806393f1a40b1161009957806393f1a40b1461049e578063a238310614610507578063ca1d209d14610569578063e2bbb15814610597578063e4c75c27146105cf578063f2fde38b146106315761016a565b8063630b5ba11461039457806364482f791461039e578063715018a6146103e2578063785e9e86146103ec5780638ae39cac146104365780638da5cb5b146104545761016a565b80633f90916a116101325780633f90916a146102a6578063441a3e70146102c457806348cd4cb1146102fc57806351eb05a61461031a5780635312ea8e146103485780635c76ca2d146103765761016a565b8063081e3eda1461016f578063083c63231461018d5780631526fe27146101ab57806317caf6f11461022e5780631eaaa0451461024c575b600080fd5b610177610675565b6040518082815260200191505060405180910390f35b610195610682565b6040518082815260200191505060405180910390f35b6101d7600480360360208110156101c157600080fd5b8101908080359060200190929190505050610688565b604051808573ffffffffffffffffffffffffffffffffffffffff1673ffffffffffffffffffffffffffffffffffffffff16815260200184815260200183815260200182815260200194505050505060405180910390f35b6102366106e5565b6040518082815260200191505060405180910390f35b6102a46004803603606081101561026257600080fd5b8101908080359060200190929190803573ffffffffffffffffffffffffffffffffffffffff1690602001909291908035151590602001909291905050506106eb565b005b6102ae61098f565b6040518082815260200191505060405180910390f35b6102fa600480360360408110156102da57600080fd5b8101908080359060200190929190803590602001909291905050506109ee565b005b610304610c2f565b6040518082815260200191505060405180910390f35b6103466004803603602081101561033057600080fd5b8101908080359060200190929190505050610c35565b005b6103746004803603602081101561035e57600080fd5b8101908080359060200190929190505050610e55565b005b61037e610f87565b6040518082815260200191505060405180910390f35b61039c610f8d565b005b6103e0600480360360608110156103b457600080fd5b810190808035906020019092919080359060200190929190803515159060200190929190505050610fbd565b005b6103ea6110ee565b005b6103f461125c565b604051808273ffffffffffffffffffffffffffffffffffffffff1673ffffffffffffffffffffffffffffffffffffffff16815260200191505060405180910390f35b61043e611282565b6040518082815260200191505060405180910390f35b61045c611288565b604051808273ffffffffffffffffffffffffffffffffffffffff1673ffffffffffffffffffffffffffffffffffffffff16815260200191505060405180910390f35b6104ea600480360360408110156104b457600080fd5b8101908080359060200190929190803573ffffffffffffffffffffffffffffffffffffffff1690602001909291905050506112b1565b604051808381526020018281526020019250505060405180910390f35b6105536004803603604081101561051d57600080fd5b8101908080359060200190929190803573ffffffffffffffffffffffffffffffffffffffff1690602001909291905050506112e2565b6040518082815260200191505060405180910390f35b6105956004803603602081101561057f57600080fd5b8101908080359060200190929190505050611345565b005b6105cd600480360360408110156105ad57600080fd5b810190808035906020019092919080359060200190929190505050611415565b005b61061b600480360360408110156105e557600080fd5b8101908080359060200190929190803573ffffffffffffffffffffffffffffffffffffffff169060200190929190505050611609565b6040518082815260200191505060405180910390f35b6106736004803603602081101561064757600080fd5b81019080803573ffffffffffffffffffffffffffffffffffffffff1690602001909291905050506118b6565b005b6000600480549050905090565b60085481565b6004818154811061069557fe5b90600052602060002090600402016000915090508060000160009054906101000a900473ffffffffffffffffffffffffffffffffffffffff16908060010154908060020154908060030154905084565b60065481565b6106f3611aa9565b73ffffffffffffffffffffffffffffffffffffffff16610711611288565b73ffffffffffffffffffffffffffffffffffffffff161461079a576040517f08c379a00000000000000000000000000000000000000000000000000000000081526004018080602001828103825260208152602001807f4f776e61626c653a2063616c6c6572206973206e6f7420746865206f776e657281525060200191505060405180910390fd5b80156107a9576107a8610f8d565b5b60008090505b60048054905081101561088c578273ffffffffffffffffffffffffffffffffffffffff16600482815481106107e057fe5b906000526020600020906004020160000160009054906101000a900473ffffffffffffffffffffffffffffffffffffffff1673ffffffffffffffffffffffffffffffffffffffff16141561087f576040517f08c379a000000000000000000000000000000000000000000000000000000000815260040180806020018281038252603081526020018061238a6030913960400191505060405180910390fd5b80806001019150506107af565b50600060075443116108a0576007546108a2565b435b90506108b984600654611ab190919063ffffffff16565b600681905550600460405180608001604052808573ffffffffffffffffffffffffffffffffffffffff1681526020018681526020018381526020016000815250908060018154018082558091505060019003906000526020600020906004020160009091909190915060008201518160000160006101000a81548173ffffffffffffffffffffffffffffffffffffffff021916908373ffffffffffffffffffffffffffffffffffffffff160217905550602082015181600101556040820151816002015560608201518160030155505050505050565b600060075443116109a357600090506109eb565b600060085443106109b6576008546109b8565b435b90506109e76002546109d96007548403600354611b3990919063ffffffff16565b611bbf90919063ffffffff16565b9150505b90565b6000600483815481106109fd57fe5b9060005260206000209060040201905060006005600085815260200190815260200160002060003373ffffffffffffffffffffffffffffffffffffffff1673ffffffffffffffffffffffffffffffffffffffff16815260200190815260200160002090508281600001541015610abe576040517f08c379a000000000000000000000000000000000000000000000000000000000815260040180806020018281038252602f8152602001806123e0602f913960400191505060405180910390fd5b610ac784610c35565b6000610b1b8260010154610b0d6ec097ce7bc90715b34b9f1000000000610aff87600301548760000154611b3990919063ffffffff16565b611c4290919063ffffffff16565b611bbf90919063ffffffff16565b9050610b273382611ccb565b610b3e848360000154611bbf90919063ffffffff16565b8260000181905550610b826ec097ce7bc90715b34b9f1000000000610b7485600301548560000154611b3990919063ffffffff16565b611c4290919063ffffffff16565b8260010181905550610bd933858560000160009054906101000a900473ffffffffffffffffffffffffffffffffffffffff1673ffffffffffffffffffffffffffffffffffffffff16611de09092919063ffffffff16565b843373ffffffffffffffffffffffffffffffffffffffff167ff279e6a1f5e320cca91135676d9cb6e44ca8a08c0b88342bcdb1144f6511b568866040518082815260200191505060405180910390a35050505050565b60075481565b600060048281548110610c4457fe5b9060005260206000209060040201905060006008544310610c6757600854610c69565b435b905081600201548111610c7d575050610e52565b60008260000160009054906101000a900473ffffffffffffffffffffffffffffffffffffffff1673ffffffffffffffffffffffffffffffffffffffff166370a08231306040518263ffffffff167c0100000000000000000000000000000000000000000000000000000000028152600401808273ffffffffffffffffffffffffffffffffffffffff1673ffffffffffffffffffffffffffffffffffffffff16815260200191505060206040518083038186803b158015610d3c57600080fd5b505afa158015610d50573d6000803e3d6000fd5b505050506040513d6020811015610d6657600080fd5b810190808051906020019092919050505090506000811415610d9357818360020181905550505050610e52565b6000610dac846002015484611bbf90919063ffffffff16565b90506000610def600654610de18760010154610dd360035487611b3990919063ffffffff16565b611b3990919063ffffffff16565b611c4290919063ffffffff16565b9050610e3b610e2884610e1a6ec097ce7bc90715b34b9f100000000085611b3990919063ffffffff16565b611c4290919063ffffffff16565b8660030154611ab190919063ffffffff16565b856003018190555043856002018190555050505050505b50565b600060048281548110610e6457fe5b9060005260206000209060040201905060006005600084815260200190815260200160002060003373ffffffffffffffffffffffffffffffffffffffff1673ffffffffffffffffffffffffffffffffffffffff1681526020019081526020016000209050610f1b3382600001548460000160009054906101000a900473ffffffffffffffffffffffffffffffffffffffff1673ffffffffffffffffffffffffffffffffffffffff16611de09092919063ffffffff16565b823373ffffffffffffffffffffffffffffffffffffffff167fbb757047c2b5f3974fe26b7c10f732e7bce710b0952a71082702781e62ae059583600001546040518082815260200191505060405180910390a36000816000018190555060008160010181905550505050565b60025481565b6000600480549050905060008090505b81811015610fb957610fae81610c35565b806001019050610f9d565b5050565b610fc5611aa9565b73ffffffffffffffffffffffffffffffffffffffff16610fe3611288565b73ffffffffffffffffffffffffffffffffffffffff161461106c576040517f08c379a00000000000000000000000000000000000000000000000000000000081526004018080602001828103825260208152602001807f4f776e61626c653a2063616c6c6572206973206e6f7420746865206f776e657281525060200191505060405180910390fd5b801561107b5761107a610f8d565b5b6110c0826110b26004868154811061108f57fe5b906000526020600020906004020160010154600654611bbf90919063ffffffff16565b611ab190919063ffffffff16565b60068190555081600484815481106110d457fe5b906000526020600020906004020160010181905550505050565b6110f6611aa9565b73ffffffffffffffffffffffffffffffffffffffff16611114611288565b73ffffffffffffffffffffffffffffffffffffffff161461119d576040517f08c379a00000000000000000000000000000000000000000000000000000000081526004018080602001828103825260208152602001807f4f776e61626c653a2063616c6c6572206973206e6f7420746865206f776e657281525060200191505060405180910390fd5b600073ffffffffffffffffffffffffffffffffffffffff166000809054906101000a900473ffffffffffffffffffffffffffffffffffffffff1673ffffffffffffffffffffffffffffffffffffffff167f8be0079c531659141344cd1fd0a4f28419497f9722a3daafe3b4186f6b6457e060405160405180910390a360008060006101000a81548173ffffffffffffffffffffffffffffffffffffffff021916908373ffffffffffffffffffffffffffffffffffffffff160217905550565b600160009054906101000a900473ffffffffffffffffffffffffffffffffffffffff1681565b60035481565b60008060009054906101000a900473ffffffffffffffffffffffffffffffffffffffff16905090565b6005602052816000526040600020602052806000526040600020600091509150508060000154908060010154905082565b6000806005600085815260200190815260200160002060008473ffffffffffffffffffffffffffffffffffffffff1673ffffffffffffffffffffffffffffffffffffffff1681526020019081526020016000209050806000015491505092915050565b600854431061139f576040517f08c379a00000000000000000000000000000000000000000000000000000000081526004018080602001828103825260278152602001806124306027913960400191505060405180910390fd5b6113ee333083600160009054906101000a900473ffffffffffffffffffffffffffffffffffffffff1673ffffffffffffffffffffffffffffffffffffffff16611eb4909392919063ffffffff16565b61140360035482611c4290919063ffffffff16565b60086000828254019250508190555050565b60006004838154811061142457fe5b9060005260206000209060040201905060006005600085815260200190815260200160002060003373ffffffffffffffffffffffffffffffffffffffff1673ffffffffffffffffffffffffffffffffffffffff168152602001908152602001600020905061149184610c35565b6000816000015411156115005760006114f282600101546114e46ec097ce7bc90715b34b9f10000000006114d687600301548760000154611b3990919063ffffffff16565b611c4290919063ffffffff16565b611bbf90919063ffffffff16565b90506114fe3382611ccb565b505b6115513330858560000160009054906101000a900473ffffffffffffffffffffffffffffffffffffffff1673ffffffffffffffffffffffffffffffffffffffff16611eb4909392919063ffffffff16565b611568838260000154611ab190919063ffffffff16565b81600001819055506115ac6ec097ce7bc90715b34b9f100000000061159e84600301548460000154611b3990919063ffffffff16565b611c4290919063ffffffff16565b8160010181905550833373ffffffffffffffffffffffffffffffffffffffff167f90890809c654f11d6e72a28fa60149770a0d11ec6c92319d6ceb2bb0a4ea1a15856040518082815260200191505060405180910390a350505050565b6000806004848154811061161957fe5b9060005260206000209060040201905060006005600086815260200190815260200160002060008573ffffffffffffffffffffffffffffffffffffffff1673ffffffffffffffffffffffffffffffffffffffff168152602001908152602001600020905060008260030154905060008360000160009054906101000a900473ffffffffffffffffffffffffffffffffffffffff1673ffffffffffffffffffffffffffffffffffffffff166370a08231306040518263ffffffff167c0100000000000000000000000000000000000000000000000000000000028152600401808273ffffffffffffffffffffffffffffffffffffffff1673ffffffffffffffffffffffffffffffffffffffff16815260200191505060206040518083038186803b15801561174557600080fd5b505afa158015611759573d6000803e3d6000fd5b505050506040513d602081101561176f57600080fd5b81019080805190602001909291905050509050836002015443118015611796575060008114155b1561185c57600060085443106117ae576008546117b0565b435b905060006117cb866002015483611bbf90919063ffffffff16565b9050600061180e60065461180089600101546117f260035487611b3990919063ffffffff16565b611b3990919063ffffffff16565b611c4290919063ffffffff16565b9050611856611847856118396ec097ce7bc90715b34b9f100000000085611b3990919063ffffffff16565b611c4290919063ffffffff16565b86611ab190919063ffffffff16565b94505050505b6118aa836001015461189c6ec097ce7bc90715b34b9f100000000061188e868860000154611b3990919063ffffffff16565b611c4290919063ffffffff16565b611bbf90919063ffffffff16565b94505050505092915050565b6118be611aa9565b73ffffffffffffffffffffffffffffffffffffffff166118dc611288565b73ffffffffffffffffffffffffffffffffffffffff1614611965576040517f08c379a00000000000000000000000000000000000000000000000000000000081526004018080602001828103825260208152602001807f4f776e61626c653a2063616c6c6572206973206e6f7420746865206f776e657281525060200191505060405180910390fd5b600073ffffffffffffffffffffffffffffffffffffffff168173ffffffffffffffffffffffffffffffffffffffff1614156119eb576040517f08c379a00000000000000000000000000000000000000000000000000000000081526004018080602001828103825260268152602001806123646026913960400191505060405180910390fd5b8073ffffffffffffffffffffffffffffffffffffffff166000809054906101000a900473ffffffffffffffffffffffffffffffffffffffff1673ffffffffffffffffffffffffffffffffffffffff167f8be0079c531659141344cd1fd0a4f28419497f9722a3daafe3b4186f6b6457e060405160405180910390a3806000806101000a81548173ffffffffffffffffffffffffffffffffffffffff021916908373ffffffffffffffffffffffffffffffffffffffff16021790555050565b600033905090565b600080828401905083811015611b2f576040517f08c379a000000000000000000000000000000000000000000000000000000000815260040180806020018281038252601b8152602001807f536166654d6174683a206164646974696f6e206f766572666c6f77000000000081525060200191505060405180910390fd5b8091505092915050565b600080831415611b4c5760009050611bb9565b6000828402905082848281611b5d57fe5b0414611bb4576040517f08c379a000000000000000000000000000000000000000000000000000000000815260040180806020018281038252602181526020018061240f6021913960400191505060405180910390fd5b809150505b92915050565b600082821115611c37576040517f08c379a000000000000000000000000000000000000000000000000000000000815260040180806020018281038252601e8152602001807f536166654d6174683a207375627472616374696f6e206f766572666c6f77000081525060200191505060405180910390fd5b818303905092915050565b6000808211611cb9576040517f08c379a000000000000000000000000000000000000000000000000000000000815260040180806020018281038252601a8152602001807f536166654d6174683a206469766973696f6e206279207a65726f00000000000081525060200191505060405180910390fd5b818381611cc257fe5b04905092915050565b600160009054906101000a900473ffffffffffffffffffffffffffffffffffffffff1673ffffffffffffffffffffffffffffffffffffffff1663a9059cbb83836040518363ffffffff167c0100000000000000000000000000000000000000000000000000000000028152600401808373ffffffffffffffffffffffffffffffffffffffff1673ffffffffffffffffffffffffffffffffffffffff16815260200182815260200192505050602060405180830381600087803b158015611d9057600080fd5b505af1158015611da4573d6000803e3d6000fd5b505050506040513d6020811015611dba57600080fd5b810190808051906020019092919050505050806002600082825401925050819055505050565b611eaf8363a9059cbb7c0100000000000000000000000000000000000000000000000000000000028484604051602401808373ffffffffffffffffffffffffffffffffffffffff1673ffffffffffffffffffffffffffffffffffffffff16815260200182815260200192505050604051602081830303815290604052907bffffffffffffffffffffffffffffffffffffffffffffffffffffffff19166020820180517bffffffffffffffffffffffffffffffffffffffffffffffffffffffff8381831617835250505050611fbd565b505050565b611fb7846323b872dd7c010000000000000000000000000000000000000000000000000000000002858585604051602401808473ffffffffffffffffffffffffffffffffffffffff1673ffffffffffffffffffffffffffffffffffffffff1681526020018373ffffffffffffffffffffffffffffffffffffffff1673ffffffffffffffffffffffffffffffffffffffff1681526020018281526020019350505050604051602081830303815290604052907bffffffffffffffffffffffffffffffffffffffffffffffffffffffff19166020820180517bffffffffffffffffffffffffffffffffffffffffffffffffffffffff8381831617835250505050611fbd565b50505050565b606061201f826040518060400160405280602081526020017f5361666545524332303a206c6f772d6c6576656c2063616c6c206661696c65648152508573ffffffffffffffffffffffffffffffffffffffff166120ac9092919063ffffffff16565b90506000815111156120a75780806020019051602081101561204057600080fd5b81019080805190602001909291905050506120a6576040517f08c379a000000000000000000000000000000000000000000000000000000000815260040180806020018281038252602a815260200180612457602a913960400191505060405180910390fd5b5b505050565b60606120bb84846000856120c4565b90509392505050565b6060823073ffffffffffffffffffffffffffffffffffffffff16311015612136576040517f08c379a00000000000000000000000000000000000000000000000000000000081526004018080602001828103825260268152602001806123ba6026913960400191505060405180910390fd5b61213f85612284565b6121b1576040517f08c379a000000000000000000000000000000000000000000000000000000000815260040180806020018281038252601d8152602001807f416464726573733a2063616c6c20746f206e6f6e2d636f6e747261637400000081525060200191505060405180910390fd5b600060608673ffffffffffffffffffffffffffffffffffffffff1685876040518082805190602001908083835b6020831061220157805182526020820191506020810190506020830392506121de565b6001836020036101000a03801982511681845116808217855250505050505090500191505060006040518083038185875af1925050503d8060008114612263576040519150601f19603f3d011682016040523d82523d6000602084013e612268565b606091505b5091509150612278828286612297565b92505050949350505050565b600080823b905060008111915050919050565b606083156122a75782905061235c565b6000835111156122ba5782518084602001fd5b816040517f08c379a00000000000000000000000000000000000000000000000000000000081526004018080602001828103825283818151815260200191508051906020019080838360005b83811015612321578082015181840152602081019050612306565b50505050905090810190601f16801561234e5780820380516001836020036101000a031916815260200191505b509250505060405180910390fd5b939250505056fe4f776e61626c653a206e6577206f776e657220697320746865207a65726f20616464726573735350582d4164643a20796f752063616e206e6f7420616464207468652073616d65204c5020746f6b656e207477696365416464726573733a20696e73756666696369656e742062616c616e636520666f722063616c6c5350582d77697468647261773a2043616e6e6f74207769746864726177206d6f7265207468616e206465706f736974536166654d6174683a206d756c7469706c69636174696f6e206f766572666c6f775350582d46756e643a20546f6f206c6174652c20746865206661726d20697320636c6f736564215361666545524332303a204552433230206f7065726174696f6e20646964206e6f742073756363656564a2646970667358221220af4a325e1ceb6b57d213e3aa9fef706a2c4813ed9fb2fc4153c4e77c4644ddcd64736f6c63430006060033",
  "immutableReferences": {},
  "source": "// SPDX-License-Identifier: MIT\npragma solidity ^0.6.6;\n\nimport \"@openzeppelin/contracts/token/ERC20/IERC20.sol\";\nimport \"@openzeppelin/contracts/token/ERC20/SafeERC20.sol\";\nimport \"@openzeppelin/contracts/utils/EnumerableSet.sol\";\nimport \"@openzeppelin/contracts/math/SafeMath.sol\";\nimport \"@openzeppelin/contracts/access/Ownable.sol\";\n\n//    _____ _____  _    ___     ___   ___   __  ______      _____  __  __\n//   / ____|  __ \\| |  | \\ \\   / / \\ | \\ \\ / / |  ____/\\   |  __ \\|  \\/  |\n//  | (___ | |__) | |__| |\\ \\_/ /|  \\| |\\ V /  | |__ /  \\  | |__) | \\  / |\n//   \\___ \\|  ___/|  __  | \\   / | . ` | > <   |  __/ /\\ \\ |  _  /| |\\/| |\n//   ____) | |    | |  | |  | |  | |\\  |/ . \\  | | / ____ \\| | \\ \\| |  | |\n//  |_____/|_|    |_|  |_|  |_|  |_| \\_/_/ \\_\\ |_|/_/    \\_\\_|  \\_\\_|  |_|\n//\n// Farm distributes the ERC20 rewards based on staked LP to each user.\n//\n// Cloned from https://github.com/SashimiProject/sashimiswap/blob/master/contracts/MasterChef.sol\n// Modified by Sphynx Network to work for non-mintable BEP-20.\n// MASTERCHEF: @developerdavi\ncontract SphynxFarm is Ownable {\n    using SafeMath for uint256;\n    using SafeERC20 for IERC20;\n\n    // Info of each user.\n    struct UserInfo {\n        uint256 amount; // How many LP tokens the user has provided.\n        uint256 rewardDebt; // Reward debt. See explanation below.\n        //\n        // We do some fancy math here. Basically, any point in time, the amount of ERC20s\n        // entitled to a user but is pending to be distributed is:\n        //\n        //   pending reward = (user.amount * pool.accERC20PerShare) - user.rewardDebt\n        //\n        // Whenever a user deposits or withdraws LP tokens to a pool. Here's what happens:\n        //   1. The pool's `accERC20PerShare` (and `lastRewardBlock`) gets updated.\n        //   2. User receives the pending reward sent to his/her address.\n        //   3. User's `amount` gets updated.\n        //   4. User's `rewardDebt` gets updated.\n    }\n\n    // Info of each pool.\n    struct PoolInfo {\n        IERC20 lpToken; // Address of LP token contract.\n        uint256 allocPoint; // How many allocation points assigned to this pool. ERC20s to distribute per block.\n        uint256 lastRewardBlock; // Last block number that ERC20s distribution occurs.\n        uint256 accERC20PerShare; // Accumulated ERC20s per share, times 1e36.\n    }\n\n    // Address of the ERC20 Token contract.\n    IERC20 public erc20;\n    // The total amount of ERC20 that's paid out as reward.\n    uint256 public paidOut = 0;\n    // ERC20 tokens rewarded per block.\n    uint256 public rewardPerBlock;\n\n    // Info of each pool.\n    PoolInfo[] public poolInfo;\n    // Info of each user that stakes LP tokens.\n    mapping(uint256 => mapping(address => UserInfo)) public userInfo;\n    // Total allocation points. Must be the sum of all allocation points in all pools.\n    uint256 public totalAllocPoint = 0;\n\n    // The block number when farming starts.\n    uint256 public startBlock;\n    // The block number when farming ends.\n    uint256 public endBlock;\n\n    event Deposit(address indexed user, uint256 indexed pid, uint256 amount);\n    event Withdraw(address indexed user, uint256 indexed pid, uint256 amount);\n    event EmergencyWithdraw(\n        address indexed user,\n        uint256 indexed pid,\n        uint256 amount\n    );\n\n    constructor(\n        IERC20 _erc20,\n        uint256 _rewardPerBlock,\n        uint256 _startBlock\n    ) public {\n        erc20 = _erc20;\n        rewardPerBlock = _rewardPerBlock;\n        startBlock = _startBlock;\n        endBlock = _startBlock;\n    }\n\n    // Number of LP pools\n    function poolLength() external view returns (uint256) {\n        return poolInfo.length;\n    }\n\n    // Fund the farm, increase the end block\n    function fund(uint256 _amount) public {\n        require(\n            block.number < endBlock,\n            \"SPX-Fund: Too late, the farm is closed!\"\n        );\n\n        erc20.safeTransferFrom(address(msg.sender), address(this), _amount);\n        endBlock += _amount.div(rewardPerBlock);\n    }\n\n    // Add a new lp to the pool. Can only be called by the owner.\n    // DO NOT add the same LP token more than once. Rewards will be messed up if you do.\n    function add(\n        uint256 _allocPoint,\n        IERC20 _lpToken,\n        bool _withUpdate\n    ) public onlyOwner {\n        if (_withUpdate) {\n            massUpdatePools();\n        }\n        for (uint256 index = 0; index < poolInfo.length; index++) {\n            require(\n                poolInfo[index].lpToken != _lpToken,\n                \"SPX-Add: you can not add the same LP token twice\"\n            );\n        }\n        uint256 lastRewardBlock = block.number > startBlock\n            ? block.number\n            : startBlock;\n        totalAllocPoint = totalAllocPoint.add(_allocPoint);\n        poolInfo.push(\n            PoolInfo({\n                lpToken: _lpToken,\n                allocPoint: _allocPoint,\n                lastRewardBlock: lastRewardBlock,\n                accERC20PerShare: 0\n            })\n        );\n    }\n\n    // Update the given pool's ERC20 allocation point. Can only be called by the owner.\n    function set(\n        uint256 _pid,\n        uint256 _allocPoint,\n        bool _withUpdate\n    ) public onlyOwner {\n        if (_withUpdate) {\n            massUpdatePools();\n        }\n        totalAllocPoint = totalAllocPoint.sub(poolInfo[_pid].allocPoint).add(\n            _allocPoint\n        );\n        poolInfo[_pid].allocPoint = _allocPoint;\n    }\n\n    // View function to see deposited LP for a user.\n    function deposited(uint256 _pid, address _user)\n        external\n        view\n        returns (uint256)\n    {\n        UserInfo storage user = userInfo[_pid][_user];\n        return user.amount;\n    }\n\n    // View function to see pending ERC20s for a user.\n    function pending(uint256 _pid, address _user)\n        external\n        view\n        returns (uint256)\n    {\n        PoolInfo storage pool = poolInfo[_pid];\n        UserInfo storage user = userInfo[_pid][_user];\n        uint256 accERC20PerShare = pool.accERC20PerShare;\n        uint256 lpSupply = pool.lpToken.balanceOf(address(this));\n\n        if (block.number > pool.lastRewardBlock && lpSupply != 0) {\n            uint256 lastBlock = block.number < endBlock\n                ? block.number\n                : endBlock;\n            uint256 nrOfBlocks = lastBlock.sub(pool.lastRewardBlock);\n            uint256 erc20Reward = nrOfBlocks\n            .mul(rewardPerBlock)\n            .mul(pool.allocPoint)\n            .div(totalAllocPoint);\n            accERC20PerShare = accERC20PerShare.add(\n                erc20Reward.mul(1e36).div(lpSupply)\n            );\n        }\n\n        return user.amount.mul(accERC20PerShare).div(1e36).sub(user.rewardDebt);\n    }\n\n    // View function for total reward the farm has yet to pay out.\n    function totalPending() external view returns (uint256) {\n        if (block.number <= startBlock) {\n            return 0;\n        }\n\n        uint256 lastBlock = block.number < endBlock ? block.number : endBlock;\n        return rewardPerBlock.mul(lastBlock - startBlock).sub(paidOut);\n    }\n\n    // Update reward variables for all pools. Be careful of gas spending!\n    function massUpdatePools() public {\n        uint256 length = poolInfo.length;\n        for (uint256 pid = 0; pid < length; ++pid) {\n            updatePool(pid);\n        }\n    }\n\n    // Update reward variables of the given pool to be up-to-date.\n    function updatePool(uint256 _pid) public {\n        PoolInfo storage pool = poolInfo[_pid];\n        uint256 lastBlock = block.number < endBlock ? block.number : endBlock;\n\n        if (lastBlock <= pool.lastRewardBlock) {\n            return;\n        }\n        uint256 lpSupply = pool.lpToken.balanceOf(address(this));\n        if (lpSupply == 0) {\n            pool.lastRewardBlock = lastBlock;\n            return;\n        }\n\n        uint256 nrOfBlocks = lastBlock.sub(pool.lastRewardBlock);\n        uint256 erc20Reward = nrOfBlocks\n        .mul(rewardPerBlock)\n        .mul(pool.allocPoint)\n        .div(totalAllocPoint);\n\n        pool.accERC20PerShare = pool.accERC20PerShare.add(\n            erc20Reward.mul(1e36).div(lpSupply)\n        );\n        pool.lastRewardBlock = block.number;\n    }\n\n    // Deposit LP tokens to Farm for ERC20 allocation.\n    function deposit(uint256 _pid, uint256 _amount) public {\n        PoolInfo storage pool = poolInfo[_pid];\n        UserInfo storage user = userInfo[_pid][msg.sender];\n        updatePool(_pid);\n        if (user.amount > 0) {\n            uint256 pendingAmount = user\n            .amount\n            .mul(pool.accERC20PerShare)\n            .div(1e36)\n            .sub(user.rewardDebt);\n            erc20Transfer(msg.sender, pendingAmount);\n        }\n        pool.lpToken.safeTransferFrom(\n            address(msg.sender),\n            address(this),\n            _amount\n        );\n        user.amount = user.amount.add(_amount);\n        user.rewardDebt = user.amount.mul(pool.accERC20PerShare).div(1e36);\n        emit Deposit(msg.sender, _pid, _amount);\n    }\n\n    // Withdraw LP tokens from Farm.\n    function withdraw(uint256 _pid, uint256 _amount) public {\n        PoolInfo storage pool = poolInfo[_pid];\n        UserInfo storage user = userInfo[_pid][msg.sender];\n        require(\n            user.amount >= _amount,\n            \"SPX-withdraw: Cannot withdraw more than deposit\"\n        );\n        updatePool(_pid);\n        uint256 pendingAmount = user\n        .amount\n        .mul(pool.accERC20PerShare)\n        .div(1e36)\n        .sub(user.rewardDebt);\n        erc20Transfer(msg.sender, pendingAmount);\n        user.amount = user.amount.sub(_amount);\n        user.rewardDebt = user.amount.mul(pool.accERC20PerShare).div(1e36);\n        pool.lpToken.safeTransfer(address(msg.sender), _amount);\n        emit Withdraw(msg.sender, _pid, _amount);\n    }\n\n    // Withdraw without caring about rewards. EMERGENCY ONLY.\n    function emergencyWithdraw(uint256 _pid) public {\n        PoolInfo storage pool = poolInfo[_pid];\n        UserInfo storage user = userInfo[_pid][msg.sender];\n        pool.lpToken.safeTransfer(address(msg.sender), user.amount);\n        emit EmergencyWithdraw(msg.sender, _pid, user.amount);\n        user.amount = 0;\n        user.rewardDebt = 0;\n    }\n\n    // Transfer ERC20 and update the required ERC20 to payout all rewards\n    function erc20Transfer(address _to, uint256 _amount) internal {\n        erc20.transfer(_to, _amount);\n        paidOut += _amount;\n    }\n}\n",
  "sourcePath": "/home/devdavi/www/sphynx/contracts/contracts/Farm.sol",
  "compiler": {
    "name": "solc",
    "version": "0.6.6+commit.6c089d02.Emscripten.clang"
  },
  "schemaVersion": "3.4.1",
  "updatedAt": "2021-07-09T03:48:59.483Z",
  "devdoc": {
    "methods": {
      "owner()": {
        "details": "Returns the address of the current owner."
      },
      "renounceOwnership()": {
        "details": "Leaves the contract without owner. It will not be possible to call `onlyOwner` functions anymore. Can only be called by the current owner.     * NOTE: Renouncing ownership will leave the contract without an owner, thereby removing any functionality that is only available to the owner."
      },
      "transferOwnership(address)": {
        "details": "Transfers ownership of the contract to a new account (`newOwner`). Can only be called by the current owner."
      }
    }
  },
  "userdoc": {
    "methods": {}
  }
}